:020000040000FA
:030000000200E318
:030013000206F9E9
:0300330002062B97
:03003B0002075564
:03006B0002050B80
:03007B0002059BE0
:100083000206BB00000080FB120113B9000302004B
:10009300CDE490030178B579038002F0A3D8FCD9AD
:1000A300FA9005B5AA82AB83900116782E79018068
:1000B30015E493A3AC82AD838A828B83F0A3AA82D7
:1000C300AB838C828D83D8E9D9E775825475830D10
:1000D30074001200F575828675830074001200F5B2
:1000E30075D00075813F751001751103759F00026E
:1000F300008BC09FF59FE473D09F22D083D082C032
:100103009FE493C0E0740193C0E0740293F59F22CF
:10011300790122FF00000000000000000000000041
:10012300000000009600005A4947424545204F4EC3
:100133000D0A005A4947424545204F46460D0A00DD
:100143001200FEBC07001200FE6308001200FEC48A
:1001530008001200FEE109001200FE6A0A00120004
:10016300FE060B001200FE160B001200FEBF0B0072
:100173001200FE4F10001200FE8910001200FEBF95
:1001830010001200FEC410001200FED30F00120074
:10019300FEF30F001200FE1310001200FE231000E6
:1001A3001200FED30B001200FE020C001200FE0729
:1001B3000C001200FE1D0C001200FE340C00120095
:1001C300FE4B0C001200FE770C001200FE9B0C008D
:1001D3001200FEAC0C001200FEB50C001200FEBEB5
:1001E3000C001200FED30C001200FEE80C001200FB
:1001F300FE070D001200FE2A0E001200FE1A0D006B
:100203001200FE370F001200FE8D0F00E49366709C
:10021300130874019366700C0874029366700508E2
:100223007403936622C3E493960874019396087447
:10023300029396087403939622E0FAA3E0FBA3E0EB
:10024300FCA3E0FD22EAF0A3EBF0A3ECF0A3EDF0B6
:1002530022CAC0E0E6F0A308DAFAD0E0FA2270047A
:1002630022600D18C6C333C608C633C6D5E0F418DA
:1002730022C0D0251010AF08F510500205118008D8
:10028300F51050020511D2AFD0D0222510F58210FF
:10029300AF08F510400215118008F5104002151142
:1002A300D2AF851183222510F582E43511F583221F
:1002B300E4732510C582C0E0E51134FFC583C0E0B7
:1002C300E510C3958224F810AF0885831185821049
:1002D3008008858311858210D2AFCEF0A3E520F08C
:1002E300A37808E608F0A3DEFAEFF0A3E58124FA89
:1002F300F8E608F0A3E608F0A3E608F0A30808E68A
:1003030008F0A3E608F0A315811581D0E0FED0E044
:10031300F8158115811581E8C0E0EEC0E022851152
:1003230083851082E0A3FEE0A3F5207808E0A3F61E
:1003330008DFFAE0A3FFE0A3C0E0E0A3C0E0E0A38E
:10034300C0E0E0A3C0E0E0A3C0E010AF08858210E6
:100353008583118008858210858311D2AFD083D025
:10036300820200FBC0D02510C582C0E0E51134FF36
:10037300C583C0E0E510C3958224F310AF088583DD
:10038300118582108008858311858210D2AFC8F051
:10039300A3E9F0A3EAF0A3EBF0A37908E709F0A33C
:1003A300D8FAECF0A3EDF0A3EEF0A3EFF0A3D0E0C6
:1003B300F0A3D0E0F0A3D0E0F0A3E520F0A3E5F0B4
:1003C300F0A322851183851082E0C0E0A3E0F9A3A6
:1003D300E0FAA3E0FBA37808E0F608A3DFFAE0FC69
:1003E300A3E0FDA3E0FEA3E0FFA3E0C0E0A3E0C021
:1003F300E0A3E0F5D0A3E0F520A3E0A3F5F010AF70
:10040300088583118582108008858311858210D227
:10041300AFD082D083D0E0F8D0E03274028000C045
:10042300E0F40412028ED0E012025422D083D08270
:10043300ECC0E0EDC0E0EEC0E0EFC0E0E493A3FC6D
:10044300E493A3FDE493A3FEE493A3FFEF4E4D4C8B
:1004530060151204ABEC24FFFCED34FFFDEE34FF1A
:10046300FEEF34FFFF80E5E493A3FCE493A3FDE4F4
:1004730093A3FEE493A3FFEF4E4D4C60151204E8E3
:10048300EC24FFFCED34FFFDEE34FFFEEF34FFFF01
:1004930080E5D0E0FFD0E0FED0E0FDD0E0FCE493C7
:1004A300A3C0E0E493C0E022C0E0C0F088F01202F1
:1004B30028A8F0400712020FA8F0701AA3A3A3A361
:1004C300120228A8F0A3A3A3A34013D0F0D0E0D036
:1004D300E0D0E0020495A3A3A3A3A3A3A3A3A3A390
:1004E300D0F0D0E022C0E0C0F088F012020FA8F0F4
:1004F300A3A3A3A3700BD0F0D0E0D0E0D0E002041C
:1005030095A3A3D0F0D0E022C0E074F1120367C238
:10051300C5E589607E7E008074750801750900EE6B
:100523007808120261E508AF08E5895F605EEEF8BE
:100533007900E875F002A4C8AAF075F000A42AFABD
:1005430075F002E9A42AF974FD28F582740339F5DC
:1005530083E0F8A3E0F9E849602EEEF87900E87546
:10056300F002A4C8AAF075F000A42AFA75F002E913
:10057300A42AF974FD28F582740339F583E0F8A3FE
:10058300E0F58388821202B3EFF452890EEEC3942E
:100593000840867F020203C6C0E074F1120367C2FB
:1005A300EBE58A607E7E008074750801750900EEB4
:1005B3007808120261E508AF08E58A5F605EEEF82D
:1005C3007900E875F002A4C8AAF075F000A42AFA2D
:1005D30075F002E9A42AF9740D28F582740439F53B
:1005E30083E0F8A3E0F9E849602EEEF87900E875B6
:1005F300F002A4C8AAF075F000A42AFA75F002E983
:10060300A42AF9740D28F582740439F583E0F8A35C
:10061300E0F58388821202B3EFF4528A0EEEC3949C
:100623000840867F020203C6C0E074F1120367C26A
:10063300E8E58B607E7E008074750801750900EE25
:100643007808120261E508AF08E58B5F605EEEF89B
:100653007900E875F002A4C8AAF075F000A42AFA9C
:1006630075F002E9A42AF9741D28F582740439F59A
:1006730083E0F8A3E0F9E849602EEEF87900E87525
:10068300F002A4C8AAF075F000A42AFA75F002E9F2
:10069300A42AF9741D28F582740439F583E0F8A3BC
:1006A300E0F58388821202B3EFF4528B0EEEC3940B
:1006B3000540867F020203C6C0E074F2120367A2FC
:1006C300AFE433FEC2AFE5E9A2E65020900427E091
:1006D300F8A3E0F9E849600E900427E0F8A3E0F5F9
:1006E3008388821202B3759B0053E9BFEEA2E092A6
:1006F300AF7F010203C6C0E0C0D0E8C0E0E9C0E0BC
:10070300C082C083E5C1C0E09004AAE0F879007418
:100713002928F582740439F583D0E0F09004A9E028
:10072300F89004AAE0687006E5959004ABF0900495
:10073300AAE024019004AAF0C3948040069004AA7E
:100743007400F0D083D082D0E0F9D0E0F8D0D0D0DC
:10075300E032C0E0C0D0E8C0E0C008C009C082C039
:100763008390052CE0F890052DE068700B539AFBFD
:1007730090052E7401F08031C2E990052CE0F50854
:100783007401250890052CF075090074AC2508F553
:100793008274043509F583E0F5C190052CE0C39418
:1007A30080400690052C7400F0D083D082D009D00D
:1007B30008D0E0F8D0D0D0E03274F71202B5E9FEE9
:1007C300EAF8EBF9E8FAE9FB740B2E8A828B83F0E3
:1007D300900308E0F8A3E0F5838882A3A3A3A3A36F
:1007E300E0600678617988800478417988E88A82B4
:1007F3008B83A3F0E4E9F88A828B83A3A3F09003AD
:1008030001E08A828B83A3A3A3F0900308E0F8A3FB
:10081300E0F5838882A3A3E0F8A3E0F98A828B83BF
:10082300A3A3A3A3E8F0A3E9F08A828B83A3A3A3E2
:10083300A3A3A3ECF0A3EDF0900308E0F8A3E0F585
:10084300838882E0F8A3E0F98A828B83A3A3A3A31E
:10085300A3A3A3A3E8F0A3E9F0790A7F010203218C
:1008630074F21202B5ECFEEDFF8908A908EAFCEB6D
:10087300FD7A0A7B03120143E9FB7A0080348A0A7A
:10088300750B00EE250AF582EF350BF583E0C0E02A
:100893008B0A750B008A0C750D00E50A250CF8E52B
:1008A3000B350DF9740A28F582740339F583D0E00A
:1008B300F00AEAC3950840C6EB2508F97F06020350
:1008C3002174F71202B57E7D7F031201DF12017FCF
:1008D3007901EEFAEFFB1201C78E828F83E0C2E744
:1008E300F08E828F83E0640570528E828F83E0F9ED
:1008F3007A7E7B031201C78E828F83A3E0A2E55029
:1009030004D2F08002C2F0A2F0E4339005BDF07887
:1009130081790388828983A3E0A2E740030209D691
:100923008E828F83A3A3A3E0F8900301E0686003A2
:100933000209D69003027401F00209D68E828F83D6
:10094300E024F59005BAF08E828F83E0F97A7E7BFE
:10095300031201C78E828F83A3E0A2E55004D2F075
:100963008002C2F0A2F0E4339005BDF08E828F8343
:10097300A3A3A3A3A3A3A3A3E0F8A3E0F99005B6BD
:10098300E8F0A3E9F09005BB7487F0A37403F0903B
:1009930005BAE0F83395E0F99005BBE028F8A3E049
:1009A30039F988828983E09005BEF088828983A320
:1009B300E0A2E750128E828F83A3E054DF6441707C
:1009C300069005BF7401F08E828F83A3A3A3E090EA
:1009D30005B5F01201851201E57F0102032174F7C9
:1009E3001202B5EAFEEBFF1201A3E9640170047978
:1009F30001806F120185900308EEF0A3EFF09005DC
:100A0300BB7400F0A37400F09003037401F090052D
:100A1300C112023C900304120248900308E0F8A3B9
:100A2300E0F5838882A3A3A3A3E0F91201AF9003A7
:100A330008E0F8A3E0F5838882E0FAA3E0FB120163
:100A4300B5900308E0F8A3E0F5838882A3A3E0FA56
:100A5300A3E0FB1201BB7A4F7B011201EB12017F72
:100A630079007F0102032174F41202B5EAFEEBFF61
:100A73008C0A8D0B8908900303E070031201D3E500
:100A830008C39467500585080980037509678509BC
:100A9300081201F11201DFA908AC0AAD0BEEFAEF5F
:100AA300FB120149E9F97A0A7B031201C11201E53C
:100AB3001201CDE960027E01900308E0F8A3E0F59E
:100AC300838882A3A3A3A3A3E0601C900302740002
:100AD300F07A4A7B0212019D900302E060047400E5
:100AE30080027401FE80027E00900303E070031213
:100AF30001D9EE7007900301E02401F0EEF97F04C1
:100B0300020321C082C0839005BFE0F9D083D08265
:100B13000200FB74F21202B58A0A8B0BECFEEDFFA6
:100B2300740E1202A9E0F508A3E0F50912018590FD
:100B330005BAE0F83395E0F9C3E89EE99F500D90BC
:100B430005BAE0F50C3395E0F50D80048E0C8F0D9E
:100B5300780C12041E9005BBE0FCA3E0FDAA0AABCF
:100B63000B1202097402120274E508450960261289
:100B730001A9E9F50A9005BEE0F83395E0F9750B94
:100B830000E8C3950AF8E9950BF98508828509837E
:100B9300E8F0A3E9F09005BF7400F012017F90051F
:100BA300BAE0F83395E0F9C3E89EE99F5007900552
:100BB300BAE0F98002EEF97F06020321C082C08306
:100BC3009003037401F01201D3D083D0820200FB9F
:100BD300C082C083906189E04460F090619074D5D5
:100BE300F09061FA7409F09061B27415F09061AEFF
:100BF3007400F01201E57900D083D0820200FB7902
:100C0300490200FBC082C08375F005E9A424D49097
:100C1300618FF0D083D0820200FBC082C083EA9050
:100C23006174F0E4EBFA906175F0D083D082020036
:100C3300FBC082C083EA906172F0E4EBFA906173C7
:100C4300F0D083D0820200FB74F61202B575E1EE98
:100C53007591FD780080138808750900EA2508F569
:100C630082EB3509F583E0F5D908E8C39940E87FBD
:100C730002020321C082C0838011E5D98A828B835B
:100C8300F08A828B83A3AA82AB8319E9C3940150B0
:100C9300E9D083D0820200FB75E1E9E591A2E1503E
:100CA300FA7591FD79000200FB75E1EC75E1E30251
:100CB30000FB75E1EF75E1EC0200FBC082C083909D
:100CC30061A3E0C2E6F0539AFED083D0820200FB18
:100CD300C082C0839061A3E0D2E6F0439A01D0833F
:100CE300D0820200FBC082C083A2AFE433F8C2AF5C
:100CF300900427EAF0A3EBF0E8A2E092AFD083D010
:100D0300820200FBC082C083906193E0542270F89A
:100D1300D083D0820200FBC082C0839005B1745B94
:100D2300F0A3741AF09005B37414F09005AF743AFD
:100D3300F0A374ACF09005B47401F07AAF7B0512A4
:100D43000155E9640160F412016DD083D082020081
:100D5300FB7E007F007508001201731201FD800FF6
:100D6300790112018B790212018B790312018BA293
:100D7300924017E508702A790B7CC97D057A157BAB
:100D83001012015BE9750801801774016508701181
:100D9300750800790C7CD57D057A157B1012015BF3
:100DA300E9120161E960C8E4F50AF50B780A120457
:100DB3001E7C807D007A2F7B05120167740212026C
:100DC30074E9FE7F00750A0B750B00780A12041E86
:100DD3007CC97D057A2F7B0512020374021202740B
:100DE3008A0A8B0BE50A450B7003020D63750A0C27
:100DF300750B00780A12041E7CD57D057A2F7B05BE
:100E030012020374021202748A0A8B0BE50A450B61
:100E13006003020D72790112019179021201917935
:100E230003120191020D7274F41202B58A088B0940
:100E33008C0A8D0B53F1FE43F30C53F2F37586804A
:100E430075C480780812042F000000000C00000015
:100E5300B00400009D0E60090000A50EC012000042
:100E6300AD0E80250000B50E40380000BD0E004BCE
:100E73000000C50E80700000CD0E00960000D50E58
:100E830000E10000DD0E002C0100E50E00C20100B0
:100E9300ED0E00840300F50EFD0E75C23B75C5050E
:100EA300805E75C23B75C506805675C23B75C50726
:100EB300804E75C23B75C508804675C2D875C50896
:100EC300803E75C23B75C509803675C2D875C509A4
:100ED300802E75C23B75C50A802675C2D875C50AB2
:100EE300801E75C23B75C50B801675C2D875C50BC0
:100EF300800E75C2D875C50C800675C23B75C50AD0
:100F030075C402438640D2AA75C1009004A9740037
:100F1300F09004AA7400F090052C7400F090052D55
:100F23007400F09004AB7400F090052E7400F07F11
:100F33000402032174F71202B574091202A9E0F83E
:100F4300A3E08015A3AA82AB838C828D83A3AC829A
:100F5300AD83E824FF18E934FFF9E84960238A8266
:100F63008B83E0FE8C828D83E06E8A828B8360D4D8
:100F7300E0F88C828D83E0FAE8C39AFA95E0FB806F
:100F8300047A007B007F0102032174F61202B57418
:100F93000A1202A9E0FEA3E0FFEAF8EBF980188C3D
:100FA300828D83E088828983F0A3A882A9838C82BF
:100FB3008D83A3AC82AD838E088F09E50824FF1EC1
:100FC300E50934FFFFE508450970D47F02020321D8
:100FD300E914600B14600C14600D14600E800ED2C3
:100FE30090800AD2958006D2938002D2940200FBAD
:100FF300E914600B14600C14600D14600E800EC2B3
:1010030090800AC2958006C2938002C2940200FBBC
:10101300C082C0837900120179D083D0820200FBA1
:10102300EBC313FBEA13FAEAF8EBF9E824FFFAE956
:1010330034FFFBE8496012000000000000000000DC
:101043000000000000000080DE0200FBC082C083BD
:1010530012019753F4FEC29043FE0153F4DFC2958D
:1010630043FE2053F4F7C29343FE0853F4EFC294B4
:1010730043FE109005C512023C1201F712017FD006
:1010830083D0820200FBE5C65480F853BEFBE59D86
:10109300A2E550FAE59DA2E240F4007401697007ED
:1010A300744948F5C68005E9700288C6E5C6F8E5C7
:1010B3009EFAE86A70F943BE040200FBD2AF020055
:0610C300FBC2AF0200FBBE
:04000005000000E314
:00000001FF
