:020000040000FA
:030000000200E318
:030013000206F5ED
:030033000206279B
:03003B0002075168
:03006B0002050784
:03007B00020597E4
:100083000206B700000080FB120113B9000302004F
:10009300CDE490030178B879038002F0A3D8FCD9AA
:1000A300FA9005B8AA82AB8390011678247901806F
:1000B30015E493A3AC82AD838A828B83F0A3AA82D7
:1000C300AB838C828D83D8E9D9E775825075830D14
:1000D30074001200F575828675830074001200F5B2
:1000E30075D00075813F751001751103759F00026E
:1000F300008BC09FF59FE473D09F22D083D082C032
:100103009FE493C0E0740193C0E0740293F59F22CF
:10011300790122FF00000000000000000000000041
:10012300000000009600005A4947424545205445C7
:1001330053540D0A00011200FEB807001200FE5FBF
:1001430008001200FEC008001200FEDD09001200C4
:10015300FE660A001200FE020B001200FE120B00E4
:100163001200FEBB0B001200FE2A10001200FE64F8
:1001730010001200FE9A10001200FE9F10001200E1
:10018300FE440F001200FE640F001200FE840F00F5
:100193001200FEEE0F001200FEFE0F001200FECF53
:1001A3000B001200FEFE0B001200FE030C001200F7
:1001B300FE190C001200FE300C001200FE470C006A
:1001C3001200FE730C001200FE970C001200FEA832
:1001D3000C001200FEB10C001200FEBA0C0012005B
:1001E300FECF0C001200FEE40C001200FE030D0013
:1001F3001200FE370E001200FE160D001200FE0C58
:100203000E001200FEA80F00E49366701308740139
:100213009366700C08740293667005087403936602
:1002230022C3E49396087401939608740293960884
:100233007403939622E0FAA3E0FBA3E0FCA3E0FDA2
:1002430022EAF0A3EBF0A3ECF0A3EDF022CAC0E0A6
:10025300E6F0A308DAFAD0E0FA22700422600D185F
:10026300C6C333C608C633C6D5E0F41822C0D025AA
:100273001010AF08F510500205118008F510500258
:100283000511D2AFD0D0222510F58210AF08F5109A
:10029300400215118008F51040021511D2AF8511E7
:1002A30083222510F582E43511F58322E4732510AA
:1002B300C582C0E0E51134FFC583C0E0E510C395F6
:1002C3008224F810AF088583118582108008858306
:1002D30011858210D2AFCEF0A3E520F0A37808E613
:1002E30008F0A3DEFAEFF0A3E58124FAF8E608F0BC
:1002F300A3E608F0A3E608F0A30808E608F0A3E6DF
:1003030008F0A315811581D0E0FED0E0F815811522
:10031300811581E8C0E0EEC0E0228511838510825B
:10032300E0A3FEE0A3F5207808E0A3F608DFFAE0F7
:10033300A3FFE0A3C0E0E0A3C0E0E0A3C0E0E0A32C
:10034300C0E0E0A3C0E010AF088582108583118070
:1003530008858210858311D2AFD083D0820200FB3F
:10036300C0D02510C582C0E0E51134FFC583C0E0CD
:10037300E510C3958224F310AF088583118582109D
:100383008008858311858210D2AFC8F0A3E9F0A35A
:10039300EAF0A3EBF0A37908E709F0A3D8FAECF0AD
:1003A300A3EDF0A3EEF0A3EFF0A3D0E0F0A3D0E031
:1003B300F0A3D0E0F0A3E520F0A3E5F0F0A32285BD
:1003C3001183851082E0C0E0A3E0F9A3E0FAA3E083
:1003D300FBA37808E0F608A3DFFAE0FCA3E0FDA3A3
:1003E300E0FEA3E0FFA3E0C0E0A3E0C0E0A3E0F5EC
:1003F300D0A3E0F520A3E0A3F5F010AF08858311A7
:100403008582108008858311858210D2AFD082D077
:1004130083D0E0F8D0E03274028000C0E0F404122C
:10042300028AD0E012025022D083D082ECC0E0EDE9
:10043300C0E0EEC0E0EFC0E0E493A3FCE493A3FDCF
:10044300E493A3FEE493A3FFEF4E4D4C6015120417
:10045300A7EC24FFFCED34FFFDEE34FFFEEF34FF89
:10046300FF80E5E493A3FCE493A3FDE493A3FEE4FC
:1004730093A3FFEF4E4D4C60151204E4EC24FFFCF4
:10048300ED34FFFDEE34FFFEEF34FFFF80E5D0E0F7
:10049300FFD0E0FED0E0FDD0E0FCE493A3C0E0E4B5
:1004A30093C0E022C0E0C0F088F0120224A8F0401C
:1004B3000712020BA8F0701AA3A3A3A3120224A885
:1004C300F0A3A3A3A34013D0F0D0E0D0E0D0E00288
:1004D3000491A3A3A3A3A3A3A3A3A3A3D0F0D0E0B6
:1004E30022C0E0C0F088F012020BA8F0A3A3A3A3DC
:1004F300700BD0F0D0E0D0E0D0E0020491A3A3D001
:10050300F0D0E022C0E074F1120363C2C5E5896054
:100513007E7E008074750801750900EE780812026A
:100523005DE508AF08E5895F605EEEF87900E87580
:10053300F002A4C8AAF075F000A42AFA75F002E943
:10054300A42AF974FD28F582740339F583E0F8A32E
:10055300E0F9E849602EEEF87900E875F002A4C8E6
:10056300AAF075F000A42AFA75F002E9A42AF97436
:10057300FD28F582740339F583E0F8A3E0F5838859
:10058300821202AFEFF452890EEEC3940840867FC5
:10059300020203C2C0E074F1120363C2EBE58A6096
:1005A3007E7E008074750801750900EE78081202DA
:1005B3005DE508AF08E58A5F605EEEF87900E875EF
:1005C300F002A4C8AAF075F000A42AFA75F002E9B3
:1005D300A42AF9740D28F582740439F583E0F8A38D
:1005E300E0F9E849602EEEF87900E875F002A4C856
:1005F300AAF075F000A42AFA75F002E9A42AF974A6
:100603000D28F582740439F583E0F8A3E0F58388B7
:10061300821202AFEFF4528A0EEEC3940840867F33
:10062300020203C2C0E074F1120363C2E8E58B6007
:100633007E7E008074750801750900EE7808120249
:100643005DE508AF08E58B5F605EEEF87900E8755D
:10065300F002A4C8AAF075F000A42AFA75F002E922
:10066300A42AF9741D28F582740439F583E0F8A3EC
:10067300E0F9E849602EEEF87900E875F002A4C8C5
:10068300AAF075F000A42AFA75F002E9A42AF97415
:100693001D28F582740439F583E0F8A3E0F5838817
:1006A300821202AFEFF4528B0EEEC3940540867FA5
:1006B300020203C2C0E074F2120363A2AFE433FE8A
:1006C300C2AFE5E9A2E65020900427E0F8A3E0F9E1
:1006D300E849600E900427E0F8A3E0F583888212CE
:1006E30002AF759B0053E9BFEEA2E092AF7F010218
:1006F30003C2C0E0C0D0E8C0E0E9C0E0C082C0836C
:10070300E5C1C0E09004AAE0F87900742928F582D5
:10071300740439F583D0E0F09004A9E0F89004AABA
:10072300E0687006E5959004ABF09004AAE024011C
:100733009004AAF0C3948040069004AA7400F0D0F9
:1007430083D082D0E0F9D0E0F8D0D0D0E032C0E05E
:10075300C0D0E8C0E0C008C009C082C08390052CA7
:10076300E0F890052DE068700B539AFB90052E740A
:1007730001F08031C2E990052CE0F50874012508E9
:1007830090052CF075090074AC2508F582740435C6
:1007930009F583E0F5C190052CE0C39480400690F1
:1007A300052C7400F0D083D082D009D008D0E0F8B3
:1007B300D0D0D0E03274F71202B1E9FEEAF8EBF9D7
:1007C300E8FAE9FB740B2E8A828B83F0900308E02E
:1007D300F8A3E0F5838882A3A3A3A3A3E06006782C
:1007E300617988800478417988E88A828B83A3F0D1
:1007F300E4E9F88A828B83A3A3F0900301E08A8261
:100803008B83A3A3A3F0900308E0F8A3E0F5838808
:1008130082A3A3E0F8A3E0F98A828B83A3A3A3A313
:10082300E8F0A3E9F08A828B83A3A3A3A3A3A3EC99
:10083300F0A3EDF0900308E0F8A3E0F5838882E0ED
:10084300F8A3E0F98A828B83A3A3A3A3A3A3A3A3FF
:10085300E8F0A3E9F0790A7F0102031D74F21202A2
:10086300B1ECFEEDFF8908A908EAFCEBFD7A0A7BEF
:1008730003120139E9FB7A0080348A0A750B00EE12
:10088300250AF582EF350BF583E0C0E08B0A750B83
:10089300008A0C750D00E50A250CF8E50B350DF9FA
:1008A300740A28F582740339F583D0E0F00AEAC3A9
:1008B300950840C6EB2508F97F0602031D74F7125D
:1008C30002B17E7D7F031201DB1201757901EEFA1D
:1008D300EFFB1201C38E828F83E0C2E7F08E828F1B
:1008E30083E0640570528E828F83E0F97A7E7B0306
:1008F3001201C38E828F83A3E0A2E55004D2F0805D
:1009030002C2F0A2F0E4339005C0F0788179038845
:10091300828983A3E0A2E740030209D28E828F83F8
:10092300A3A3A3E0F8900301E06860030209D29057
:1009330003027401F00209D28E828F83E024F590C2
:1009430005BDF08E828F83E0F97A7E7B031201C3AB
:100953008E828F83A3E0A2E55004D2F08002C2F01E
:10096300A2F0E4339005C0F08E828F83A3A3A3A3E8
:10097300A3A3A3A3E0F8A3E0F99005B9E8F0A3E9E2
:10098300F09005BE7487F0A37403F09005BDE0F802
:100993003395E0F99005BEE028F8A3E039F98882A1
:1009A3008983E09005C1F088828983A3E0A2E750A0
:1009B300128E828F83A3E054DF644170069005C2D8
:1009C3007401F08E828F83A3A3A3E09005B8F01285
:1009D300017B1201E17F0102031D74F71202B1EAE8
:1009E300FEEBFF12019FE9640170047901806F122D
:1009F300017B900308EEF0A3EFF09005BE7400F0C6
:100A0300A37400F09003037401F09005C41202383C
:100A1300900304120244900308E0F8A3E0F58388EE
:100A230082A3A3A3A3E0F91201AB900308E0F8A308
:100A3300E0F5838882E0FAA3E0FB1201B19003089A
:100A4300E0F8A3E0F5838882A3A3E0FAA3E0FB1216
:100A530001B77A457B011201E712017579007F0125
:100A630002031D74F41202B1EAFEEBFF8C0A8D0B34
:100A73008908900303E070031201CFE508C394676C
:100A8300500585080980037509678509081201ED7A
:100A93001201DBA908AC0AAD0BEEFAEFFB12013F22
:100AA300E9F97A0A7B031201BD1201E11201C9E9D6
:100AB30060027E01900308E0F8A3E0F5838882A337
:100AC300A3A3A3A3E0601C9003027400F07A4A7B03
:100AD30002120199900302E0600474008002740121
:100AE300FE80027E00900303E070031201D5EE70D6
:100AF30007900301E02401F0EEF97F0402031DC017
:100B030082C0839005C2E0F9D083D0820200FB74D7
:100B1300F21202B18A0A8B0BECFEEDFF740E120285
:100B2300A5E0F508A3E0F50912017B9005BDE0F807
:100B33003395E0F9C3E89EE99F500D9005BDE0F5BC
:100B43000C3395E0F50D80048E0C8F0D780C120498
:100B53001A9005BEE0FCA3E0FDAA0AAB0B12020546
:100B63007402120270E508450960261201A5E9F531
:100B73000A9005C1E0F83395E0F9750B00E8C395D9
:100B83000AF8E9950BF9850882850983E8F0A3E95A
:100B9300F09005C27400F01201759005BDE0F833C2
:100BA30095E0F9C3E89EE99F50079005BDE0F98001
:100BB30002EEF97F0602031DC082C0839003037413
:100BC30001F01201CFD083D0820200FBC082C08328
:100BD300906189E04460F090619074D5F09061FA7F
:100BE3007409F09061B27415F09061AE7400F01264
:100BF30001E17900D083D0820200FB79490200FB36
:100C0300C082C08375F005E9A424D490618FF0D02D
:100C130083D0820200FBC082C083EA906174F0E457
:100C2300EBFA906175F0D083D0820200FBC082C0E2
:100C330083EA906172F0E4EBFA906173F0D083D0B1
:100C4300820200FB74F61202B175E1EE7591FD7834
:100C53000080138808750900EA2508F582EB350939
:100C6300F583E0F5D908E8C39940E87F0202031D44
:100C7300C082C0838011E5D98A828B83F08A828BFC
:100C830083A3AA82AB8319E9C3940150E9D083D02B
:100C9300820200FB75E1E9E591A2E150FA7591FD4D
:100CA30079000200FB75E1EC75E1E30200FB75E1FD
:100CB300EF75E1EC0200FBC082C0839061A3E0C248
:100CC300E6F0539AFED083D0820200FBC082C08339
:100CD3009061A3E0D2E6F0439A01D083D082020070
:100CE300FBC082C083A2AFE433F8C2AF900427EA0B
:100CF300F0A3EBF0E8A2E092AFD083D0820200FB36
:100D0300C082C083906193E0542270F8D083D08274
:100D13000200FBC082C0839005B4745BF0A3741A15
:100D2300F09005B67414F09005B2743AF0A374AC65
:100D3300F09005B77401F07AB27B0512014BE964B8
:100D43000160F4120163D083D0820200FB7E007F36
:100D5300001201691201F975E40580779005B174F9
:100D630000F07901120187790212018779031201D8
:100D7300879005AF7400F0A37400F0E4F508F5095B
:100D8300780812041A7C807D007A2F7B0512015D9E
:100D93007402120270E9FE7F009005B1E06034A294
:100DA300C15030C2C19005AFE02401F0A3E034008C
:100DB300F09005AFE0643C7004A3E064007014900D
:100DC30005AF7400F0A37400F0790112018D79026C
:100DD30012018D1201FFE9600E790D7CCC7D057A3D
:100DE300157B10120151E9120157E960AC9005B16E
:100DF300E06003020D5F9005B17401F07901120107
:100E0300817902120187020D74C082C083A29250BD
:100E13000A9005DA7401F0790080129005DAE07027
:100E230004790080089005DA7400F07901D083D04A
:100E3300820200FB74F41202B18A088B098C0A8DBA
:100E43000B53F1FE43F30C53F2F375868075C480A4
:100E5300780812042B000000000C000000B004000E
:100E630000AA0E60090000B20EC0120000BA0E8084
:100E7300250000C20E40380000CA0E004B0000D20D
:100E83000E80700000DA0E00960000E20E00E10012
:100E930000EA0E002C0100F20E00C20100FA0E005F
:100EA300840300020F0A0F75C23B75C505805E758A
:100EB300C23B75C506805675C23B75C507804E7526
:100EC300C23B75C508804675C2D875C508803E7596
:100ED300C23B75C509803675C2D875C509802E75A4
:100EE300C23B75C50A802675C2D875C50A801E75B2
:100EF300C23B75C50B801675C2D875C50B800E75C0
:100F0300C2D875C50C800675C23B75C50A75C40287
:100F1300438640D2AA75C1009004A97400F09004DE
:100F2300AA7400F090052C7400F090052D7400F065
:100F33009004AB7400F090052E7400F07F0402035C
:100F43001DE914600B14600C14600D14600E800E08
:100F5300D290800AD2958006D2938002D294020066
:100F6300FBE914600B14600C14600D14600E800E0A
:100F7300C290800AC2958006C2938002C294020086
:100F8300FBE914600B14600D14600F1460118012E0
:100F9300639001800D639020800863900880036351
:100FA30090100200FB74F61202B1740A1202A5E05B
:100FB300FEA3E0FFEAF8EBF980188C828D83E088CA
:100FC300828983F0A3A882A9838C828D83A3AC82B8
:100FD300AD838E088F09E50824FF1EE50934FFFF62
:100FE300E508450970D47F0202031DC082C08379DE
:100FF3000012016FD083D0820200FBEBC313FBEA24
:1010030013FAEAF8EBF9E824FFFAE934FFFBE849BD
:10101300601200000000000000000000000000005B
:10102300000080DE0200FBC082C08312019353F4F0
:10103300FEC29043FE0153F4DFC29543FE2053F4F6
:10104300F7C29343FE0853F4EFC29443FE10900596
:10105300C81202381201F3120175D083D082020044
:10106300FBE5C65480F853BEFBE59DA2E550FAE5C7
:101073009DA2E240F4007401697007744948F5C603
:101083008005E9700288C6E5C6F8E59EFAE86A704D
:10109300F943BE040200FBD2AF0200FBC2AF020061
:0110A300FB51
:04000005000000E314
:00000001FF
