:020000040000FA
:030000000200E318
:030013000206E9F9
:0300330002061BA7
:03003B0002074574
:03006B000204FB91
:03007B0002058BF0
:100083000206AB00000080FB120113B9000302005B
:10009300CDE490030178B579038002F0A3D8FCD9AD
:1000A300FA9005B5AA82AB83900116782479018072
:1000B30015E493A3AC82AD838A828B83F0A3AA82D7
:1000C300AB838C828D83D8E9D9E775825175830E12
:1000D30074001200F575828675830074001200F5B2
:1000E30075D00075813F751001751103759F00026E
:1000F300008BC09FF59FE473D09F22D083D082C032
:100103009FE493C0E0740193C0E0740293F59F22CF
:10011300790122FF00000000000000000000000041
:10012300000000009600005A4947424545205445C7
:1001330053540D0A00011200FEAC07001200FE53D7
:1001430008001200FEB408001200FED109001200DC
:10015300FE5A0A001200FEF60A001200FE060B0009
:100163001200FEAF0B001200FE4C0F001200FE86C1
:100173000F001200FEE00F001200FEE50F00120058
:10018300FEBC0F001200FE100F001200FE200F0035
:100193001200FEC30B001200FEF20B001200FEF76A
:1001A3000B001200FE0D0C001200FE240C001200C6
:1001B300FE3B0C001200FE670C001200FE8B0C00CD
:1001C3001200FE9C0C001200FEA50C001200FEAEF5
:1001D3000C001200FEC30C001200FED80C0012002B
:1001E300FEF70C001200FE0A0D001200FE170E00AF
:1001F3001200FE9F0E001200FECA0E00E49366700A
:10020300130874019366700C0874029366700508F2
:100213007403936622C3E493960874019396087457
:10022300029396087403939622E0FAA3E0FBA3E0FB
:10023300FCA3E0FD22EAF0A3EBF0A3ECF0A3EDF0C6
:1002430022CAC0E0E6F0A308DAFAD0E0FA2270048A
:1002530022600D18C6C333C608C633C6D5E0F418EA
:1002630022C0D0251010AF08F510500205118008E8
:10027300F51050020511D2AFD0D0222510F582100F
:10028300AF08F510400215118008F5104002151152
:10029300D2AF851183222510F582E43511F583222F
:1002A300E4732510C582C0E0E51134FFC583C0E0C7
:1002B300E510C3958224F810AF0885831185821059
:1002C3008008858311858210D2AFCEF0A3E520F09C
:1002D300A37808E608F0A3DEFAEFF0A3E58124FA99
:1002E300F8E608F0A3E608F0A3E608F0A30808E69A
:1002F30008F0A3E608F0A315811581D0E0FED0E055
:10030300F8158115811581E8C0E0EEC0E022851162
:1003130083851082E0A3FEE0A3F5207808E0A3F62E
:1003230008DFFAE0A3FFE0A3C0E0E0A3C0E0E0A39E
:10033300C0E0E0A3C0E0E0A3C0E010AF08858210F6
:100343008583118008858210858311D2AFD083D035
:10035300820200FBC0D02510C582C0E0E51134FF46
:10036300C583C0E0E510C3958224F310AF088583ED
:10037300118582108008858311858210D2AFC8F061
:10038300A3E9F0A3EAF0A3EBF0A37908E709F0A34C
:10039300D8FAECF0A3EDF0A3EEF0A3EFF0A3D0E0D6
:1003A300F0A3D0E0F0A3D0E0F0A3E520F0A3E5F0C4
:1003B300F0A322851183851082E0C0E0A3E0F9A3B6
:1003C300E0FAA3E0FBA37808E0F608A3DFFAE0FC79
:1003D300A3E0FDA3E0FEA3E0FFA3E0C0E0A3E0C031
:1003E300E0A3E0F5D0A3E0F520A3E0A3F5F010AF80
:1003F300088583118582108008858311858210D238
:10040300AFD082D083D0E0F8D0E03274028000C055
:10041300E0F40412027ED0E012024422D083D082A0
:10042300ECC0E0EDC0E0EEC0E0EFC0E0E493A3FC7D
:10043300E493A3FDE493A3FEE493A3FFEF4E4D4C9B
:10044300601512049BEC24FFFCED34FFFDEE34FF3A
:10045300FEEF34FFFF80E5E493A3FCE493A3FDE404
:1004630093A3FEE493A3FFEF4E4D4C60151204D803
:10047300EC24FFFCED34FFFDEE34FFFEEF34FFFF11
:1004830080E5D0E0FFD0E0FED0E0FDD0E0FCE493D7
:10049300A3C0E0E493C0E022C0E0C0F088F0120201
:1004A30018A8F040071201FFA8F0701AA3A3A3A392
:1004B300120218A8F0A3A3A3A34013D0F0D0E0D056
:1004C300E0D0E0020485A3A3A3A3A3A3A3A3A3A3B0
:1004D300D0F0D0E022C0E0C0F088F01201FFA8F015
:1004E300A3A3A3A3700BD0F0D0E0D0E0D0E002042C
:1004F30085A3A3D0F0D0E022C0E074F1120357C269
:10050300C5E589607E7E008074750801750900EE7B
:100513007808120251E508AF08E5895F605EEEF8DE
:100523007900E875F002A4C8AAF075F000A42AFACD
:1005330075F002E9A42AF974FD28F582740339F5EC
:1005430083E0F8A3E0F9E849602EEEF87900E87556
:10055300F002A4C8AAF075F000A42AFA75F002E923
:10056300A42AF974FD28F582740339F583E0F8A30E
:10057300E0F58388821202A3EFF452890EEEC3944E
:100583000840867F020203B6C0E074F1120357C22B
:10059300EBE58A607E7E008074750801750900EEC4
:1005A3007808120251E508AF08E58A5F605EEEF84D
:1005B3007900E875F002A4C8AAF075F000A42AFA3D
:1005C30075F002E9A42AF9740D28F582740439F54B
:1005D30083E0F8A3E0F9E849602EEEF87900E875C6
:1005E300F002A4C8AAF075F000A42AFA75F002E993
:1005F300A42AF9740D28F582740439F583E0F8A36D
:10060300E0F58388821202A3EFF4528A0EEEC394BC
:100613000840867F020203B6C0E074F1120357C29A
:10062300E8E58B607E7E008074750801750900EE35
:100633007808120251E508AF08E58B5F605EEEF8BB
:100643007900E875F002A4C8AAF075F000A42AFAAC
:1006530075F002E9A42AF9741D28F582740439F5AA
:1006630083E0F8A3E0F9E849602EEEF87900E87535
:10067300F002A4C8AAF075F000A42AFA75F002E902
:10068300A42AF9741D28F582740439F583E0F8A3CC
:10069300E0F58388821202A3EFF4528B0EEEC3942B
:1006A3000540867F020203B6C0E074F2120357A22C
:1006B300AFE433FEC2AFE5E9A2E65020900427E0A1
:1006C300F8A3E0F9E849600E900427E0F8A3E0F509
:1006D3008388821202A3759B0053E9BFEEA2E092C6
:1006E300AF7F010203B6C0E0C0D0E8C0E0E9C0E0DC
:1006F300C082C083E5C1C0E09004AAE0F879007429
:100703002928F582740439F583D0E0F09004A9E038
:10071300F89004AAE0687006E5959004ABF09004A5
:10072300AAE024019004AAF0C3948040069004AA8E
:100733007400F0D083D082D0E0F9D0E0F8D0D0D0EC
:10074300E032C0E0C0D0E8C0E0C008C009C082C049
:100753008390052CE0F890052DE068700B539AFB0D
:1007630090052E7401F08031C2E990052CE0F50864
:100773007401250890052CF075090074AC2508F563
:100783008274043509F583E0F5C190052CE0C39428
:1007930080400690052C7400F0D083D082D009D01D
:1007A30008D0E0F8D0D0D0E03274F71202A5E9FE09
:1007B300EAF8EBF9E8FAE9FB740B2E8A828B83F0F3
:1007C300900308E0F8A3E0F5838882A3A3A3A3A37F
:1007D300E0600678617988800478417988E88A82C4
:1007E3008B83A3F0E4E9F88A828B83A3A3F09003BD
:1007F30001E08A828B83A3A3A3F0900308E0F8A30C
:10080300E0F5838882A3A3E0F8A3E0F98A828B83CF
:10081300A3A3A3A3E8F0A3E9F08A828B83A3A3A3F2
:10082300A3A3A3ECF0A3EDF0900308E0F8A3E0F595
:10083300838882E0F8A3E0F98A828B83A3A3A3A32E
:10084300A3A3A3A3E8F0A3E9F0790A7F01020311AC
:1008530074F21202A5ECFEEDFF8908A908EAFCEB8D
:10086300FD7A0A7B03120139E9FB7A0080348A0A94
:10087300750B00EE250AF582EF350BF583E0C0E03A
:100883008B0A750B008A0C750D00E50A250CF8E53B
:100893000B350DF9740A28F582740339F583D0E01A
:1008A300F00AEAC3950840C6EB2508F97F06020360
:1008B3001174F71202A57E7D7F031201CF12017519
:1008C3007901EEFAEFFB1201B78E828F83E0C2E764
:1008D300F08E828F83E0640570528E828F83E0F9FD
:1008E3007A7E7B031201B78E828F83A3E0A2E55049
:1008F30004D2F08002C2F0A2F0E4339005BDF07898
:1009030081790388828983A3E0A2E740030209C6B1
:100913008E828F83A3A3A3E0F8900301E0686003B2
:100923000209C69003027401F00209C68E828F8306
:10093300E024F59005BAF08E828F83E0F97A7E7B0E
:10094300031201B78E828F83A3E0A2E55004D2F095
:100953008002C2F0A2F0E4339005BDF08E828F8353
:10096300A3A3A3A3A3A3A3A3E0F8A3E0F99005B6CD
:10097300E8F0A3E9F09005BB7487F0A37403F0904B
:1009830005BAE0F83395E0F99005BBE028F8A3E059
:1009930039F988828983E09005BEF088828983A330
:1009A300E0A2E750128E828F83A3E054DF6441708C
:1009B300069005BF7401F08E828F83A3A3A3E090FA
:1009C30005B5F012017B1201D57F0102031174F703
:1009D3001202A5EAFEEBFF120193E96401700479A8
:1009E30001806F12017B900308EEF0A3EFF09005F6
:1009F300BB7400F0A37400F09003037401F090053E
:100A0300C112022C900304120238900308E0F8A3E9
:100A1300E0F5838882A3A3A3A3E0F912019F9003C7
:100A230008E0F8A3E0F5838882E0FAA3E0FB120173
:100A3300A5900308E0F8A3E0F5838882A3A3E0FA76
:100A4300A3E0FB1201AB7A457B011201DB120175B6
:100A530079007F0102031174F41202A5EAFEEBFF91
:100A63008C0A8D0B8908900303E070031201C3E520
:100A730008C39467500585080980037509678509CC
:100A8300081201E11201CFA908AC0AAD0BEEFAEF8F
:100A9300FB12013FE9F97A0A7B031201B11201D576
:100AA3001201BDE960027E01900308E0F8A3E0F5BE
:100AB300838882A3A3A3A3A3E0601C900302740012
:100AC300F07A4A7B0212018D900302E06004740005
:100AD30080027401FE80027E00900303E070031223
:100AE30001C9EE7007900301E02401F0EEF97F04E1
:100AF300020311C082C0839005BFE0F9D083D08286
:100B03000200FB74F21202A58A0A8B0BECFEEDFFC6
:100B1300740E120299E0F508A3E0F50912017B9027
:100B230005BAE0F83395E0F9C3E89EE99F500D90CC
:100B330005BAE0F50C3395E0F50D80048E0C8F0DAE
:100B4300780C12040E9005BBE0FCA3E0FDAA0AABEF
:100B53000B1201F97402120264E5084509602612BA
:100B63000199E9F50A9005BEE0F83395E0F9750BB4
:100B730000E8C3950AF8E9950BF98508828509838E
:100B8300E8F0A3E9F09005BF7400F0120175900539
:100B9300BAE0F83395E0F9C3E89EE99F5007900562
:100BA300BAE0F98002EEF97F06020311C082C08326
:100BB3009003037401F01201C3D083D0820200FBBF
:100BC300C082C083906189E04460F090619074D5E5
:100BD300F09061FA7409F09061B27415F09061AE0F
:100BE3007400F01201D57900D083D0820200FB7922
:100BF300490200FBC082C08375F005E9A424D490A8
:100C0300618FF0D083D0820200FBC082C083EA9060
:100C13006174F0E4EBFA906175F0D083D082020046
:100C2300FBC082C083EA906172F0E4EBFA906173D7
:100C3300F0D083D0820200FB74F61202A575E1EEB8
:100C43007591FD780080138808750900EA2508F579
:100C530082EB3509F583E0F5D908E8C39940E87FCD
:100C630002020311C082C0838011E5D98A828B837B
:100C7300F08A828B83A3AA82AB8319E9C3940150C0
:100C8300E9D083D0820200FB75E1E9E591A2E1504E
:100C9300FA7591FD79000200FB75E1EC75E1E30261
:100CA30000FB75E1EF75E1EC0200FBC082C08390AD
:100CB30061A3E0C2E6F0539AFED083D0820200FB28
:100CC300C082C0839061A3E0D2E6F0439A01D0834F
:100CD300D0820200FBC082C083A2AFE433F8C2AF6C
:100CE300900427EAF0A3EBF0E8A2E092AFD083D020
:100CF300820200FBC082C083906193E0542270F8AB
:100D0300D083D0820200FB74F41202A58A088B09F7
:100D13008C0A8D0B53F1FE43F30C53F2F37586806B
:100D230075C480780812041F000000000C00000046
:100D3300B00400007D0D60090000850DC0120000A5
:100D43008D0D80250000950D403800009D0D004B52
:100D53000000A50D80700000AD0D00960000B50DDC
:100D630000E10000BD0D002C0100C50D00C2010013
:100D7300CD0D00840300D50DDD0D75C23B75C50592
:100D8300805E75C23B75C506805675C23B75C50747
:100D9300804E75C23B75C508804675C2D875C508B7
:100DA300803E75C23B75C509803675C2D875C509C5
:100DB300802E75C23B75C50A802675C2D875C50AD3
:100DC300801E75C23B75C50B801675C2D875C50BE1
:100DD300800E75C2D875C50C800675C23B75C50AF1
:100DE30075C402438640D2AA75C1009004A9740059
:100DF300F09004AA7400F090052C7400F090052D77
:100E03007400F09004AB7400F090052E7400F07F32
:100E130004020311C082C0839005B1745BF0A37414
:100E23001AF09005B37414F09005AF743AF0A374FC
:100E3300ACF09005B47401F07AAF7B0512014BE975
:100E4300640160F4120163D083D0820200FB7E0050
:100E53007F001201691201ED1201F3E960137903B6
:100E6300120181790D7CC97D057A157B1012015120
:100E7300E9120157E960E17901120181E4F508F50E
:100E830009780812040E7C807D007A2F7B051201FD
:100E93005D7402120264E9FE7F0080BCC082C083DD
:100EA300A292500A9005D77401F079008012900540
:100EB300D7E07004790080089005D77400F07901B9
:100EC300D083D0820200FB74F61202A5740A1202C8
:100ED30099E0FEA3E0FFEAF8EBF980188C828D839A
:100EE300E088828983F0A3A882A9838C828D83A35F
:100EF300AC82AD838E088F09E50824FF1EE5093413
:100F0300FFFFE508450970D47F02020311C082C0C8
:100F130083790012016FD083D0820200FBEBC313ED
:100F2300FBEA13FAEAF8EBF9E824FFFAE934FFFBEA
:100F3300E84960120000000000000000000000000B
:100F43000000000080DE0200FBC082C08312018724
:100F530053F4FEC29043FE0153F4DFC29543FE20D7
:100F630053F4F7C29343FE0853F4EFC29443FE10C5
:100F73009005C512022C1201E7120175D083D082AD
:100F83000200FBE5C65480F853BEFBE59DA2E55085
:100F9300FAE59DA2E240F4007401697007744948C0
:100FA300F5C68005E9700288C6E5C6F8E59EFAE84D
:100FB3006A70F943BE040200FBE914600B14600D70
:100FC30014600F1460118012639001800D639020F0
:100FD300800863900880036390100200FBD2AF0285
:070FE30000FBC2AF0200FB9E
:04000005000000E314
:00000001FF
