:020000040000FA
:030000000200E318
:030013000206EFF3
:03003300020621A1
:03003B0002074B6E
:03006B000205018A
:03007B00020591EA
:100083000206B100000080FB120113B90003020055
:10009300CDE490030178B979038002F0A3D8FCD9A9
:1000A300FA9005B9AA82AB8390011678247901806E
:1000B30015E493A3AC82AD838A828B83F0A3AA82D7
:1000C300AB838C828D83D8E9D9E775820375830C62
:1000D30074001200F575828675830074001200F5B2
:1000E30075D00075813F751001751103759F00026E
:1000F300008BC09FF59FE473D09F22D083D082C032
:100103009FE493C0E0740193C0E0740293F59F22CF
:10011300790122FF00000000000000000000000041
:10012300000000009600005A4947424545205445C7
:1001330053540D0A00011200FEB207001200FE59CB
:1001430008001200FEBA08001200FED709001200D0
:10015300FE600A001200FEFC0A001200FE0C0B00F7
:100163001200FEB50B001200FE2E10001200FE68F6
:1001730010001200FE9E10001200FEA310001200D9
:10018300FEB20F001200FED20F001200FEF20F00AB
:100193001200FE0210001200FE180D001200FE47AE
:1001A3000D001200FE4C0D001200FE620D00120045
:1001B300FE790D001200FE900D001200FEBC0D0032
:1001C3001200FEE00D001200FEF10D001200FEFA17
:1001D3000D001200FE030E001200FE180E001200A6
:1001E300FE2D0E001200FE4C0E001200FE5F0E00EC
:1001F3001200FEC90B001200FEED0C001200FE6C93
:100203000F00E4936670130874019366700C08740E
:100213000293667005087403936622C3E4939608F9
:10022300740193960874029396087403939622E0DC
:10023300FAA3E0FBA3E0FCA3E0FD22EAF0A3EBF0CA
:10024300A3ECF0A3EDF022CAC0E0E6F0A308DAFACB
:10025300D0E0FA22700422600D18C6C333C608C664
:1002630033C6D5E0F41822C0D0251010AF08F5101E
:10027300500205118008F51050020511D2AFD0D0FD
:10028300222510F58210AF08F510400215118008E1
:10029300F51040021511D2AF851183222510F58286
:1002A300E43511F58322E4732510C582C0E0E5111E
:1002B30034FFC583C0E0E510C3958224F810AF086E
:1002C3008583118582108008858311858210D2AFC2
:1002D300CEF0A3E520F0A37808E608F0A3DEFAEF5A
:1002E300F0A3E58124FAF8E608F0A3E608F0A3E614
:1002F30008F0A30808E608F0A3E608F0A3158115A3
:1003030081D0E0FED0E0F8158115811581E8C0E0C9
:10031300EEC0E022851183851082E0A3FEE0A3F501
:10032300207808E0A3F608DFFAE0A3FFE0A3C0E02B
:10033300E0A3C0E0E0A3C0E0E0A3C0E0E0A3C0E02E
:1003430010AF08858210858311800885821085830C
:1003530011D2AFD083D0820200FBC0D02510C5825A
:10036300C0E0E51134FFC583C0E0E510C3958224E6
:10037300F310AF088583118582108008858311856A
:100383008210D2AFC8F0A3E9F0A3EAF0A3EBF0A385
:100393007908E709F0A3D8FAECF0A3EDF0A3EEF0A7
:1003A300A3EFF0A3D0E0F0A3D0E0F0A3D0E0F0A35C
:1003B300E520F0A3E5F0F0A322851183851082E008
:1003C300C0E0A3E0F9A3E0FAA3E0FBA37808E0F61A
:1003D30008A3DFFAE0FCA3E0FDA3E0FEA3E0FFA394
:1003E300E0C0E0A3E0C0E0A3E0F5D0A3E0F520A3E4
:1003F300E0A3F5F010AF088583118582108008858E
:100403008311858210D2AFD082D083D0E0F8D0E0C0
:100413003274028000C0E0F404120284D0E01202BD
:100423004A22D083D082ECC0E0EDC0E0EEC0E0EF22
:10043300C0E0E493A3FCE493A3FDE493A3FEE4935D
:10044300A3FFEF4E4D4C60151204A1EC24FFFCED0D
:1004530034FFFDEE34FFFEEF34FFFF80E5E493A3AA
:10046300FCE493A3FDE493A3FEE493A3FFEF4E4DBB
:100473004C60151204DEEC24FFFCED34FFFDEE347A
:10048300FFFEEF34FFFF80E5D0E0FFD0E0FED0E0D9
:10049300FDD0E0FCE493A3C0E0E493C0E022C0E01D
:1004A300C0F088F012021EA8F04007120205A8F05F
:1004B300701AA3A3A3A312021EA8F0A3A3A3A3408D
:1004C30013D0F0D0E0D0E0D0E002048BA3A3A3A329
:1004D300A3A3A3A3A3A3D0F0D0E022C0E0C0F088DD
:1004E300F0120205A8F0A3A3A3A3700BD0F0D0E0F1
:1004F300D0E0D0E002048BA3A3D0F0D0E022C0E090
:1005030074F112035DC2C5E589607E7E0080747557
:100513000801750900EE7808120257E508AF08E5EF
:10052300895F605EEEF87900E875F002A4C8AAF06E
:1005330075F000A42AFA75F002E9A42AF974FD28DB
:10054300F582740339F583E0F8A3E0F9E849602EF6
:10055300EEF87900E875F002A4C8AAF075F000A4DB
:100563002AFA75F002E9A42AF974FD28F5827403C6
:1005730039F583E0F8A3E0F58388821202A9EFF44A
:1005830052890EEEC3940840867F020203BCC0E08A
:1005930074F112035DC2EBE58A607E7E00807475A0
:1005A3000801750900EE7808120257E508AF08E55F
:1005B3008A5F605EEEF87900E875F002A4C8AAF0DD
:1005C30075F000A42AFA75F002E9A42AF9740D283B
:1005D300F582740439F583E0F8A3E0F9E849602E65
:1005E300EEF87900E875F002A4C8AAF075F000A44B
:1005F3002AFA75F002E9A42AF9740D28F582740425
:1006030039F583E0F8A3E0F58388821202A9EFF4B9
:10061300528A0EEEC3940840867F020203BCC0E0F8
:1006230074F112035DC2E8E58B607E7E0080747511
:100633000801750900EE7808120257E508AF08E5CE
:100643008B5F605EEEF87900E875F002A4C8AAF04B
:1006530075F000A42AFA75F002E9A42AF9741D289A
:10066300F582740439F583E0F8A3E0F9E849602ED4
:10067300EEF87900E875F002A4C8AAF075F000A4BA
:100683002AFA75F002E9A42AF9741D28F582740484
:1006930039F583E0F8A3E0F58388821202A9EFF429
:1006A300528B0EEEC3940540867F020203BCC0E06A
:1006B30074F212035DA2AFE433FEC2AFE5E9A2E632
:1006C3005020900427E0F8A3E0F9E849600E900475
:1006D30027E0F8A3E0F58388821202A9759B0053F3
:1006E300E9BFEEA2E092AF7F010203BCC0E0C0D03D
:1006F300E8C0E0E9C0E0C082C083E5C1C0E0900487
:10070300AAE0F87900742928F582740439F583D0B6
:10071300E0F09004A9E0F89004AAE0687006E5957B
:100723009004ABF09004AAE024019004AAF0C394CF
:100733008040069004AA7400F0D083D082D0E0F900
:10074300D0E0F8D0D0D0E032C0E0C0D0E8C0E0C004
:1007530008C009C082C08390052CE0F890052DE005
:1007630068700B539AFB90052E7401F08031C2E937
:1007730090052CE0F5087401250890052CF0750907
:100783000074AC2508F58274043509F583E0F5C1DE
:1007930090052CE0C39480400690052C7400F0D0A3
:1007A30083D082D009D008D0E0F8D0D0D0E0327422
:1007B300F71202ABE9FEEAF8EBF9E8FAE9FB740B8E
:1007C3002E8A828B83F0900308E0F8A3E0F58388F8
:1007D30082A3A3A3A3A3E060067861798880047849
:1007E300417988E88A828B83A3F0E4E9F88A828BD3
:1007F30083A3A3F0900301E08A828B83A3A3A3F0D6
:10080300900308E0F8A3E0F5838882A3A3E0F8A3AC
:10081300E0F98A828B83A3A3A3A3E8F0A3E9F08A78
:10082300828B83A3A3A3A3A3A3ECF0A3EDF0900374
:1008330008E0F8A3E0F5838882E0F8A3E0F98A8270
:100843008B83A3A3A3A3A3A3A3A3E8F0A3E9F079B2
:100853000A7F0102031774F21202ABECFEEDFF896B
:1008630008A908EAFCEBFD7A0A7B03120139E9FBCC
:100873007A0080348A0A750B00EE250AF582EF357B
:100883000BF583E0C0E08B0A750B008A0C750D0035
:10089300E50A250CF8E50B350DF9740A28F5827481
:1008A3000339F583D0E0F00AEAC3950840C6EB2587
:1008B30008F97F0602031774F71202AB7E7D7F03EC
:1008C3001201D51201757901EEFAEFFB1201BD8E0B
:1008D300828F83E0C2E7F08E828F83E064057052DB
:1008E3008E828F83E0F97A7E7B031201BD8E828F25
:1008F30083A3E0A2E55004D2F08002C2F0A2F0E4A8
:10090300339005C1F07881790388828983A3E0A2BB
:10091300E740030209CC8E828F83A3A3A3E0F89060
:100923000301E06860030209CC9003027401F00242
:1009330009CC8E828F83E024F59005BEF08E828FE2
:1009430083E0F97A7E7B031201BD8E828F83A3E05D
:10095300A2E55004D2F08002C2F0A2F0E433900585
:10096300C1F08E828F83A3A3A3A3A3A3A3A3E0F8C1
:10097300A3E0F99005BAE8F0A3E9F09005BF748706
:10098300F0A37403F09005BEE0F83395E0F9900509
:10099300BFE028F8A3E039F988828983E09005C293
:1009A300F088828983A3E0A2E750128E828F83A30B
:1009B300E054DF644170069005C37401F08E828FAA
:1009C30083A3A3A3E09005B9F012017B1201DB7F9F
:1009D3000102031774F71202ABEAFEEBFF1201994F
:1009E300E9640170047901806F12017B900308EEC2
:1009F300F0A3EFF09005BF7400F0A37400F0900330
:100A0300037401F09005C512023290030412023EF2
:100A1300900308E0F8A3E0F5838882A3A3A3A3E0EF
:100A2300F91201A5900308E0F8A3E0F5838882E0BA
:100A3300FAA3E0FB1201AB900308E0F8A3E0F5830F
:100A43008882A3A3E0FAA3E0FB1201B17A457B01FC
:100A53001201E112017579007F0102031774F41288
:100A630002ABEAFEEBFF8C0A8D0B8908900303E0CF
:100A730070031201C9E508C394675005850809800E
:100A8300037509678509081201E71201D5A908ACA6
:100A93000AAD0BEEFAEFFB12013FE9F97A0A7B0389
:100AA3001201B71201DB1201C3E960027E01900358
:100AB30008E0F8A3E0F5838882A3A3A3A3A3E060DF
:100AC3001C9003027400F07A4A7B02120193900394
:100AD30002E06004740080027401FE80027E0090D4
:100AE3000303E070031201CFEE7007900301E024CB
:100AF30001F0EEF97F04020317C082C0839005C39F
:100B0300E0F9D083D0820200FB74F21202AB8A0AAE
:100B13008B0BECFEEDFF740E12029FE0F508A3E0D1
:100B2300F50912017B9005BEE0F83395E0F9C3E8BF
:100B33009EE99F500D9005BEE0F50C3395E0F50D51
:100B430080048E0C8F0D780C1204149005BFE0FC0A
:100B5300A3E0FDAA0AAB0B1201FF740212026AE5BD
:100B6300084509602612019FE9F50A9005C2E0F8DD
:100B73003395E0F9750B00E8C3950AF8E9950BF98D
:100B8300850882850983E8F0A3E9F09005C3740022
:100B9300F01201759005BEE0F83395E0F9C3E89EC5
:100BA300E99F50079005BEE0F98002EEF97F060247
:100BB3000317C082C0839003037401F01201C9D0EC
:100BC30083D0820200FBC082C0839005B5745BF0C2
:100BD300A3741AF09005B77414F09005B3743AF047
:100BE300A374ACF09005B87401F07AB37B051201DD
:100BF3004BE9640160F4120163D083D0820200FBED
:100C03007E007F001201691201F375E405020CBE38
:100C13009005B17400F079011201877902120187FE
:100C230079031201879005AF7400F0A37400F0E418
:100C3300F508F50978081204147C807D007A2F7B6F
:100C43000512015D740212026AE9FE7F009005B18C
:100C5300E06068A2C15064C2C19005AFE02401F016
:100C6300A3E03400F09005AFE0643C7004A3E064BB
:100C730000701F9005AF7400F0A37400F0790112A7
:100C83000181790212018179031201819005B27405
:100C930001F09005B2E060239005AFE064147004A6
:100CA300A3E0640070159005B27400F0790112019D
:100CB30087790212018779031201871201F9E9602A
:100CC3000E790D7CCD7D057A157B10120151E91249
:100CD3000157E97003020C509005B1E06003020C68
:100CE300139005B17401F0020C28C082C083A29254
:100CF300500A9005DB7401F0790080129005DBE067
:100D03007004790080089005DB7400F07901D083CA
:100D1300D0820200FBC082C083906189E04460F00E
:100D230090619074D5F09061FA7409F09061B27497
:100D330015F09061AE7400F01201DB7900D083D01E
:100D4300820200FB79490200FBC082C08375F00573
:100D5300E9A424D490618FF0D083D0820200FBC039
:100D630082C083EA906174F0E4EBFA906175F0D08D
:100D730083D0820200FBC082C083EA906172F0E4F8
:100D8300EBFA906173F0D083D0820200FB74F61209
:100D930002AB75E1EE7591FD780080138808750943
:100DA30000EA2508F582EB3509F583E0F5D908E873
:100DB300C39940E87F02020317C082C0838011E514
:100DC300D98A828B83F08A828B83A3AA82AB83190D
:100DD300E9C3940150E9D083D0820200FB75E1E9B5
:100DE300E591A2E150FA7591FD79000200FB75E1EE
:100DF300EC75E1E30200FB75E1EF75E1EC0200FB4A
:100E0300C082C0839061A3E0C2E6F0539AFED08310
:100E1300D0820200FBC082C0839061A3E0D2E6F0DF
:100E2300439A01D083D0820200FBC082C083A2AF69
:100E3300E433F8C2AF900427EAF0A3EBF0E8A2E0B2
:100E430092AFD083D0820200FBC082C083906193B3
:100E5300E0542270F8D083D0820200FB74F41202B3
:100E6300AB8A088B098C0A8D0B53F1FE43F30C53A9
:100E7300F2F375868075C48078081204250000009B
:100E8300000C000000B0040000D20E60090000DA7C
:100E93000EC0120000E20E80250000EA0E4038006A
:100EA30000F20E004B0000FA0E80700000020F00EB
:100EB3009600000A0F00E10000120F002C01001A37
:100EC3000F00C20100220F008403002A0F320F75A6
:100ED300C23B75C505805E75C23B75C506805675F8
:100EE300C23B75C507804E75C23B75C50880467504
:100EF300C2D875C508803E75C23B75C50980367575
:100F0300C2D875C509802E75C23B75C50A80267582
:100F1300C2D875C50A801E75C23B75C50B80167590
:100F2300C2D875C50B800E75C2D875C50C80067501
:100F3300C23B75C50A75C402438640D2AA75C10077
:100F43009004A97400F09004AA7400F090052C7426
:100F530000F090052D7400F09004AB7400F0900540
:100F63002E7400F07F0402031774F61202AB740AA6
:100F730012029FE0FEA3E0FFEAF8EBF980188C82EF
:100F83008D83E088828983F0A3A882A9838C828DD4
:100F930083A3AC82AD838E088F09E50824FF1EE589
:100FA3000934FFFFE508450970D47F02020317E9FE
:100FB30014600B14600C14600D14600E800ED2903C
:100FC300800AD2958006D2938002D2940200FBE974
:100FD30014600B14600C14600D14600E800EC2902C
:100FE300800AC2958006C2938002C2940200FBC0AD
:100FF30082C083790012016FD083D0820200FBEBA1
:10100300C313FBEA13FAEAF8EBF9E824FFFAE9342D
:10101300FFFBE84960120000000000000000000030
:1010230000000000000080DE0200FBC082C08312CB
:10103300018D53F4FEC29043FE0153F4DFC2954386
:10104300FE2053F4F7C29343FE0853F4EFC29443D4
:10105300FE109005C91202321201ED120175D08300
:10106300D0820200FBE5C65480F853BEFBE59DA287
:10107300E550FAE59DA2E240F4007401697007743B
:101083004948F5C68005E9700288C6E5C6F8E59EBD
:10109300FAE86A70F943BE040200FBD2AF0200FB18
:0510A300C2AF0200FBDA
:04000005000000E314
:00000001FF
